:1000000010C017C016C015C014C013C012C011C054
:1000100010C00FC00EC00DC00CC00BC00AC009C07C
:1000200008C011241FBECFE5D2E0DEBFCDBF6DD02A
:10003000B9C0E6CF8BB3897F8BBB8BB389608BBB99
:100040002FED83E994E0215080409040E1F700C01B
:1000500000008BB3837F8BBB83ED90E30197F1F7B7
:1000600000C00000089589B3807790E024E0969561
:1000700087952A95E1F708958530910591F050F420
:1000800081309105A1F00397A9F48BB38B608BBBF2
:10009000DA980895069771F48BB38D608BBBD9986D
:1000A00008958BB389608BBB8BB3897F06C08BB3FC
:1000B0008F6003C0D89A8BB3817F8BBB089581E09A
:1000C00090E0DADF83ED90E30197F1F700C00000E4
:1000D00086E090E0D1DF83ED90E30197F1F700C077
:1000E0000000089585E090E0C7DF83ED90E301977D
:1000F000F1F700C0000086E090E0BEDF83ED90E302
:100100000197F1F700C00000089585B7806485BFAE
:100110008AB38F608ABB8AB38F788ABB87B38C7FA0
:1001200087BB88DFA0DF8C01A7DF83ED90E3019719
:10013000F1F700C0000097DFEC010817190771F014
:100140000630110549F487E090E096DFE3EDF0E337
:100150003197F1F700C00000CE018EDFC630D10527
:1001600011F08E01E2CFB09B0DC0B19B18C0F9CF4A
:10017000B099FBCFE1EEF4E03197F1F700C0000059
:100180008150B1F79CDF83E3F3CFB099EACFE1EE82
:10019000F4E03197F1F700C000008150B1F7A2DF21
:0801A00083E3F3CFF894FFCFD5
:00000001FF
