:1000000010C017C016C015C014C013C012C011C054
:1000100010C00FC00EC00DC00CC00BC00AC009C07C
:1000200008C011241FBECFE5D2E0DEBFCDBF3AD05D
:100030004FC0E6CF8BB3857F85608BBB2FED83E907
:1000400094E0215080409040E1F700C000008BB365
:100050008C7F8BBB83ED90E30197F1F700C000002C
:10006000089589B382958F7090E080959095837004
:10007000992708959C019BB32130310561F040F030
:100080002230310559F02330310551F49F6008C00A
:10009000947F946005C09D7F9D6002C0957F9560B0
:1000A0009BBB08958AB38F608ABB1BBAC3DFD9DFBD
:1000B000EC01E0DF87EA91E60197F1F700C000006C
:1000C000D0DF8C018C179D07A9F3D4DFE801F2CFB4
:0400D000F894FFCFD2
:00000001FF
