:1000000010C017C016C015C014C013C012C011C054
:1000100010C00FC00EC00DC00CC00BC00AC009C07C
:1000200008C011241FBECFE5D2E0DEBFCDBF47D050
:10003000A8C0E6CF8BB3897F8BBB8BB389608BBBAA
:100040002FED83E994E0215080409040E1F700C01B
:1000500000008BB3837F8BBB83ED90E30197F1F7B7
:1000600000C00000089589B3807790E024E0969561
:1000700087952A95E1F708958530910591F050F420
:1000800081309105A1F00397A9F48BB38B608BBBF2
:10009000DA980895069771F48BB38D608BBBD9986D
:1000A00008958BB389608BBB8BB3897F06C08BB3FC
:1000B0008F6003C0D89A8BB3817F8BBB08958FE08C
:1000C0008ABB1BBA17BA18BAB5DFCDDF8C01D4DFF3
:1000D00083ED90E30197F1F700C00000C4DFEC016D
:1000E0000817190771F00630110549F487E090E010
:1000F000C3DF87EA91E60197F1F700C00000CE0167
:10010000BBDFC630D10511F08E01E2CFB0991BC024
:10011000B09907C081EE94E00197F1F700C00000AC
:10012000F7CF81E090E0A8DF83ED90E30197F1F74E
:1001300000C0000086E090E09FDF83ED90E3019730
:10014000F1F700C00000B199DFCFB19907C081EE8F
:1001500094E00197F1F700C00000F7CF85E090E050
:100160008BDF83ED90E30197F1F700C0000086E09C
:1001700090E082DF83ED90E30197F1F700C000008B
:06018000C3CFF894FFCF8D
:00000001FF
