:1000000010C017C016C015C014C013C012C011C054
:1000100010C00FC00EC00DC00CC00BC00AC009C07C
:1000200008C011241FBECFE5D2E0DEBFCDBF40D057
:1000300055C0E6CF8BB3857F8BBB8BB385608BBB05
:100040002FED83E994E0215080409040E1F700C01B
:1000500000008BB38C7F8BBB83ED90E30197F1F7AE
:1000600000C00000089589B3807390E024E0969565
:1000700087952A95E1F708958130910579F0A0F0F0
:100080008230910531F0039791F4DA9A8BB3847F33
:100090000DC08BB38D608BBBD99808958BB38560F1
:1000A0008BBB8BB3857F02C08BB38F608BBB0895F6
:1000B0008AB38F608ABB1BBABDDFD5DFEC01DCDF02
:1000C0008FE493EC0197F1F700C00000CCDF8C01C6
:1000D0008C179D07A9F3D0DFE801F2CFF894FFCF8A
:00000001FF
